:020000040800F2
:1000000000080020290200087D110008B50600083C
:1000100079110008610300081325000800000000A2
:10002000000000000000000000000000C9150008EA
:1000300065030008000000009D1400085717000821
:100040004B0200084B0200084B0200084B0200085C
:100050004B0200084B0200084B0200084B0200084C
:100060004B0200084B0200084B0200084B0200083C
:100070004B0200084B0200084B0200084B0200082C
:100080004B0200084B0200084B0200084B0200081C
:100090004B0200084B0200084B0200084B0200080C
:1000A0004B0200084B0200084B0200084B020008FC
:1000B000E5180008091900084B0200084B02000867
:1000C0004B0200084B0200084B0200084B020008DC
:1000D0004B0200084B0200084B020008F122000806
:1000E0004B0200084B0200084B0200084B020008BC
:1000F0004B0200084B0200084B0200084B020008AC
:100100004B0200084B0200084B0200084B0200089B
:100110004B0200084B0200084B0200084B0200088B
:100120004B0200084B0200084B0200084B0200087B
:100130004B0200084B0200084B0200084B0200086B
:100140004B0200084B0200084B0200084B0200085B
:100150004B0200084B0200084B0200084B0200084B
:100160004B0200084B0200084B0200084B0200083B
:100170004B0200084B0200084B0200084B0200082B
:100180004B0200084B02000800F002F800F03CF8B7
:100190000AA090E8000C82448344AAF10107DA45E2
:1001A00001D100F031F8AFF2090EBAE80F0013F0F8
:1001B000010F18BFFB1A43F001031847B4420000B7
:1001C000D4420000103A24BF78C878C1FAD8520748
:1001D00024BF30C830C144BF04680C6070470000C1
:1001E0000023002400250026103A28BF78C1FBD840
:1001F000520728BF30C148BF0B6070471FB504F0DD
:10020000B4F81FBD10B510BD00F04AF81146FFF755
:10021000F5FF02F049FF00F068F803B4FFF7F2FFC2
:1002200003BC02F09DFE0000016841F47001016012
:100230000948804709480047FEE7FEE7FEE7FEE77A
:10024000FEE7FEE7FEE7FEE7FEE7FEE704480549B6
:10025000054A064B7047000059170008890100083D
:1002600000020020000800200004002000040020FC
:100270007047704770477047704710B500F008F836
:10028000006810BD10B5044600F002F8046010BD0F
:10029000004870479C010020004870479C010020E6
:1002A0007546FFF7F9FFAE4605006946534620F054
:1002B0000700854618B020B5FFF7C8FFBDE820400D
:1002C0004FF000064FF000074FF000084FF0000B12
:1002D00021F00701AC46ACE8C009ACE8C009ACE8C5
:1002E000C009ACE8C0098D46704710B50446AFF3AD
:1002F00000802046BDE81040FFF78FBF2DE9F04198
:100300000026C824002700254FF0000800BF12E097
:1003100000F0A2F81048B0F9000007440E48B0F908
:10032000020005440C48B0F904008044022002F0A9
:1003300091FE701CC6B2A642EADB97FBF4F000B255
:100340000649088095FBF4F000B2488095FBF4F074
:1003500000B28880BDE8F081620000206E000020BD
:1003600000BFFEE77047F0B50A46002100230024D5
:1003700000BF3DE0012505FA01F3156805EA030415
:100380009C4234D105684F000326BE40B54305604A
:1003900015794E00B5400668354305601579012D85
:1003A00002D01579022D16D185684F000326BE4074
:1003B000B543856055794E00B54086683543856004
:1003C000456801268E40B5434560456896798E4064
:1003D000B6B235434560C5684F000326BE40B543FD
:1003E000C560D5794E00B540C6683543C560491C27
:1003F0001029BFD3F0BDF0B5002300244D07ED0E4A
:1004000002FA05F3CE1000F1200555F826504E07EC
:10041000F70E0F26BE40B543CF1000F1200646F878
:100420002750CE1000F1200555F8265045EA030468
:10043000CE1000F1200545F82640F0BD0246002010
:1004400013690B400BB1012000E00020704741838D
:10045000704701837047000010B54421D02001F09F
:100460002BF9404908704321D02001F025F93D497E
:10047000487008460078497840EA012000B23A49BD
:1004800008804621D02001F017F9364988704521AF
:10049000D02001F011F93349C87008468078C97836
:1004A00040EA012000B2304948804821D02001F0C4
:1004B00003F92C4908714721D02001F0FDF82949A2
:1004C000487108460079497940EA012000B226497E
:1004D00088803C21D02001F0EFF8224988713B212F
:1004E000D02001F0E9F81F49C87108468079C97920
:1004F00040EA012000B21D4908803E21D02001F0D1
:10050000DBF8184908723D21D02001F0D5F81549D3
:1005100048720846007A497A40EA012000B213493D
:1005200048804021D02001F0C7F80E4988723F2151
:10053000D02001F0C1F80B49C8720846807AC97A08
:1005400040EA012000B2094988804221D02001F010
:10055000B3F8044908734121D02001F0ADF80149F6
:10056000487310BD680100205C000020620000207C
:1005700070B5B1F57A7F01DA4FF47A70B1F5FA6FA0
:1005800001DD4FF4FA60B0F57A7F01DA4FF47A7149
:10059000B0F5FA6F01DD4FF4FA61B2F57A7F01DA56
:1005A0004FF47A72B2F5FA6F01DD4FF4FA62B3F5E7
:1005B0007A7F01DA4FF47A73B3F5FA6F01DD4FF405
:1005C000FA631B4C21601B4C2468141B1A4D2C60D1
:1005D0001A4C2468041B1A4D2C601A4C24681C1BEE
:1005E000194D2C60144C24686442142594FBF5F4D6
:1005F000114D2C60124C24686442142594FBF5F4D0
:100600000F4D2C60104C24680A2C08DA0E4C24681C
:1006100014F10A0F03DD00240B4D2C6007E00A4D96
:100620002C68E51704EB5575ED10074E356070BD6D
:100630001C000020100000202000002014000020DA
:100640002400002018000020280000202DE9F0419F
:100650004FF00008C82400250026002700BF14E042
:10066000FFF7FAFE1148B0F9000005440F48B0F951
:10067000020006440D48B0F904000744022002F0CD
:10068000E9FC08F1010000F0FF08A045E8DB95FB5C
:10069000F4F000B20649088096FBF4F000B24880FE
:1006A00097FBF4F000B28880BDE8F0815C00002088
:1006B0006800002000BFFEE71CB50121022000F009
:1006C000EFFEC020009002208DF8050001208DF87B
:1006D00004008DF8060000208DF8070069460248E6
:1006E000FFF741FE1CBD00000004024010B5402190
:1006F0000B48FFF7ACFE00F0DBF880210848FFF75D
:10070000A8FE00F0D5F840210548FFF7A2FE00F052
:10071000CFF840210248FFF79AFE00F0C9F810BD5B
:100720000004024070B50825002480211148FFF71D
:1007300090FE14E06006040E40210E48FFF787FE8D
:1007400000F0B6F840210B48FFF783FE00F0B0F848
:1007500080210848FFF772FE08B144F00104281E0A
:10076000A5F10101CDB2E5D140210248FFF76FFEAE
:10077000204670BD0004024070B5044608251BE009
:1007800040211248FFF763FE00F092F804F0800069
:1007900020B180210D48FFF75CFE03E080210B486B
:1007A000FFF755FE6006040E00F082F8402107486E
:1007B000FFF74FFE00F07CF8281EA5F10101CDB235
:1007C000DED140210148FFF742FE70BD0004024027
:1007D00010B580211248FFF73CFE40211048FFF77A
:1007E00038FE00F065F880210D48FFF727FE08B9B4
:1007F000002010BD80210A48FFF729FE00F058F8BC
:1008000080210748FFF71AFE08B10020F1E7802198
:100810000348FFF71CFE00F04BF80120E9E7000059
:100820000004024010B540210B48FFF710FE00F015
:100830003FF880210848FFF70AFE00F039F8402110
:100840000548FFF706FE00F033F880210248FFF765
:1008500000FE00F02DF810BD0004024010B540214C
:100860001248FFF7F4FD00F023F880210F48FFF74E
:10087000F0FD00F01DF840210C48FFF7EAFD00F004
:1008800017F880210948FFF7D9FD38B14021074802
:10089000FFF7DDFD00F00CF8002010BD40210348FB
:1008A000FFF7D5FD00F004F80120F6E70004024050
:1008B000142001E0411EC8B20028FBD1704700009F
:1008C00010B52DED088BFFF7C7FD6949B1F9001090
:1008D000684AB2F90020881A03F08CF941EC1A0B2F
:1008E0009FED650B53EC102B03F0D8F941EC190B7D
:1008F0009FED630B53EC102B03F0D0F941EC180B78
:1009000002F03AFF604908605949B1F90210594AAA
:10091000B2F90220881A03F06DF941EC1A0B9FED31
:10092000560B53EC102B03F0B9F941EC190B9FED6A
:10093000540B53EC102B03F0B1F941EC180B02F0FF
:100940001BFF514948604A49B1F90410494AB2F9BC
:100950000420881A03F04EF941EC1A0B9FED460B68
:1009600053EC102B03F09AF941EC190B9FED440B5B
:1009700053EC102B03F092F941EC180B02F0FCFE43
:10098000414988604149B1F90010414AB2F900205B
:10099000881A03F02FF941EC1B0B9FED3E0B53EC33
:1009A000102B03F07BF941EC1A0B02F0E5FE044634
:1009B00003F06AFC41EC190B9FED380B53EC102B44
:1009C00003F06CF941EC180B02F0D6FE35490860D3
:1009D0002E49B1F902102E4AB2F90220881A03F00A
:1009E00009F941EC1B0B9FED2B0B53EC102B03F083
:1009F00055F941EC1A0B02F0BFFE044603F044FC2B
:100A000041EC190B9FED250B53EC102B03F046F92D
:100A100041EC180B02F0B0FE224948601B49B1F9C5
:100A200004101B4AB2F90420881A03F0E3F841ECE1
:100A30001B0B9FED180B53EC102B03F02FF941EC1F
:100A40001A0B02F099FE044603F01EFC41EC190B50
:100A50009FED120B53EC102B03F020F941EC180B17
:100A600002F08AFE0F498860BDEC088B10BD0000C3
:100A70005C0000206800002008AC1C5A643BAF3FBB
:100A8000A835CD3B4ED1913F780100206200002077
:100A90006E00002008AC1C5A643BCF3F6EA301BC23
:100AA0000512843F8401002000B52DED108B91B01C
:100AB000B0EE409AB0EE608AF0EE418AB0EE61DAB4
:100AC000B0EE42AAF0EE62AA9FEDFE0AF0EE40DA26
:100AD0009FEDFC0AF0EE409AFB4890ED000A20EEF4
:100AE000000A8DED0D0A90ED000AF848D0ED000ADD
:100AF00020EE200A8DED0C0AF34890ED000AF44830
:100B0000D0ED000A20EE200A8DED0B0AEF4890EDA3
:100B1000000A20EE000A8DED0A0A90ED000AED4869
:100B2000D0ED000A20EE200A8DED090AE84890ED8C
:100B3000000A20EE000A8DED080A90ED000AE54853
:100B4000D0ED000A20EE200A8DED070A90ED000A94
:100B500020EE000A8DED060A2DEE0D0A0AEE0A0AB5
:100B60000AEEAA0A10EE101A084603F08DFB41ECBB
:100B70001C0BB0EE4C0AF0EE6C0A02F003F9B0EE7A
:100B800040BAF0EE60BA51EC1B0B02F0F5FD09EE35
:100B9000900A8DEE290AB0EE40DA8AEE290AB0EE0C
:100BA00040AA8AEEA90AF0EE40AA9DED090ADDED01
:100BB0000B0A30EE600AF0EE000A20EE200AB0EEDA
:100BC00040EA9DED0C0ADDED070A30EE200AF0EE5A
:100BD000000A20EE200AF0EE40EA9DED0D0ADDED60
:100BE0000A0A70EE600A9DED080A70EEC00A9DEDDB
:100BF000060A30EE800AB0EE40FA2AEE0F0A0AEE3C
:100C0000EE0AF0EE40FA2AEE8E0A0DEE4F0A8DED56
:100C10000F0A2DEE2E0A0AEE4E0A8DED0E0A9FEDFA
:100C2000AE0AAE4880ED000A9FEDAB0A6FEE800A77
:100C300090ED001A80EE810A30EE090AB0EE409A7B
:100C40009DED0F0ADFEDA40A60EE200A90ED001A78
:100C500080EE810A30EE080AB0EE408A9DED0E0A61
:100C6000DFED9D0A60EE200A90ED001A80EE810A09
:100C700030EE280AF0EE408A90ED000AF0EE000A0D
:100C800020EE200A20EE090A20EE000AD0ED000A2C
:100C9000B0EE001A60EE810A60EE880A90ED001A4C
:100CA000F0EE001A21EE211A21EE081A00EE810A58
:100CB000D0ED000AB0EE001A60EE810A60EEA80ADC
:100CC00090ED001AF0EE001A21EE211A21EE281AFA
:100CD00000EE810AF0EE40DAF2EE000A8DEEA00A94
:100CE000F7EE000A30EEC00A7748D0ED000A60EE59
:100CF000200A764890ED000AB1EE400A20EE090A7B
:100D0000734890ED001A01EE480A724890ED001AFF
:100D100001EE680A714890ED001A40EE010A6A4837
:100D2000C0ED000AF2EE000A8DEEA00AF7EE000A0E
:100D300030EEC00A6548D0ED000A60EE200A624835
:100D400090ED000A20EE090A614890ED001A01EECC
:100D5000280A604890ED001A01EE480A5F4890EDBD
:100D6000001A40EE010A5948C0ED000AF2EE000AEE
:100D70008DEEA00AF7EE000A30EEC00A5448D0ED1E
:100D8000000A60EE200A504890ED000A20EE080AA2
:100D90004E4890ED001A01EE680A4E4890ED001A98
:100DA00001EE090A4D4890ED001A40EE010A48484C
:100DB000C0ED000AF2EE000A8DEEA00AF7EE000A7E
:100DC00030EEC00A4348D0ED000A60EE200A3E48EB
:100DD00090ED000A20EE280A3C4890ED001A01EE42
:100DE000080A3B4890ED001A01EE490A3B4890ED95
:100DF000001A40EE010A3748C0ED000A324890ED73
:100E0000000A20EE000A3148D0ED000A90ED001AE9
:100E100000EE810A2E48D0ED000A90ED001A00EE97
:100E2000810A2C48D0ED000A90ED001A00EE810AEC
:100E300010EE101A084603F027FA41EC1C0BB0EE36
:100E40004C0AF0EE6C0A01F09DFFB0EE40BAF0EEF5
:100E500060BA51EC1B0B02F08FFC09EE900A1A48A5
:100E600090ED000AC0EE290AC0ED000A174890ED87
:100E7000000AC0EE290AC0ED000A154890ED000AEC
:100E8000C0EE290AC0ED000A124890ED000AC0EE3B
:100E9000290AC0ED000A0D4890ED000AF8EE000A9C
:100EA00020EE200A0B48D0ED000A20EE200A06486A
:100EB000D0ED000AB0EE001A60EE810A044890ED11
:100EC000001A0DE000000000780000207C000020E7
:100ED00080000020840000206F12033B740000207B
:100EE00000EE810A10EE101A084603F0CDF9CDE9A4
:100EF00004019DED040B01F027FBB0EE40BAF0EECB
:100F000060BA9FED6A0B53EC102B51EC1B0B02F0F7
:100F1000C5FE41EC1C0B02F02FFC66494860664898
:100F200090ED000AF8EE000A20EE200AD0ED000A4B
:100F300020EE200A6148D0ED000AB0EE001A60EE03
:100F4000810A90ED001A00EEC10AF7EE000A30EEB9
:100F5000200A10EE101A084603F096F941EC1B0B1C
:100F6000564890ED000AF0EE000A20EE200A5448A0
:100F7000D0ED000A20EE200A5248D0ED000AB0EE73
:100F8000001A60EE810A4C4890ED001A00EE810ACA
:100F900010EE101A084603F077F941EC1C0BB0EE86
:100FA0004B1AF0EE6B1AB0EE4C0AF0EE6C0A01F040
:100FB000E7FD8DED020B9FED3D0B53EC102B9DEDEE
:100FC000020B51EC100B02F069FECDE904019DED1E
:100FD000040B51EC100B02F0CFFB36490860374888
:100FE00090ED000AF8EE000A20EE200AD0ED000A8B
:100FF00020EE200A3248D0ED000AB0EE001A60EE72
:10100000810A90ED001A00EEC10AF7EE000A30EEF8
:10101000200A10EE101A084603F036F941EC1B0BBB
:10102000254890ED000AF0EE000A20EE200A234841
:10103000D0ED000A20EE200A2248D0ED000AB0EEE2
:10104000001A60EE810A1E4890ED001A00EE810A37
:1010500010EE101A084603F017F9B0EE4B1AF0EE36
:101060006B1ACDE900019DED000B01F089FD8DEDBE
:10107000020B9DED020B51EC100B02F071FB41ECE9
:101080001C0B9FED0A0B53EC102B02F007FECDE971
:1010900004019DED040B51EC100B02F06DFB0549B2
:1010A000886011B0BDEC108B00BD000066666666FE
:1010B00066A64C40900100207C00002080000020AB
:1010C000840000207800002010B500226B21D02081
:1010D00000F020FB02221921D02000F01BFB02228D
:1010E0001A21D02000F016FB18221B21D02000F07E
:1010F00011FB11221C21D02000F00CFB10BD0000C0
:101100001CB50121042000F0CBF90F200090012034
:101110008DF8040000208DF806008DF807000320EC
:101120008DF8050069460248FFF71DF91CBD000057
:1011300000080240DFED0E0AB4EEE00AF1EE10FA0C
:1011400004DDDFED0B0AB0EE600A0CE0DFED090A0A
:10115000B4EEE00AF1EE10FA04D2DFED060AB0EECA
:10116000600A00E000BFFDEEC00A10EE900A704772
:101170000000FA4400007A4400BFFEE7704708B55B
:101180004FF4407000F062F827208DF80000032033
:101190008DF8010001208DF80300684600F01AF870
:1011A0001C208DF8000002208DF8010001208DF830
:1011B0000300684600F00EF81D208DF800000020A6
:1011C0008DF8010001208DF80300684600F002F858
:1011D00008BD000070B5002100230F22C4781CB3A5
:1011E000174C246804F4E064C4F5E064C4F30721F8
:1011F000C1F10404E3B20A4144789C40E1B284782E
:10120000144021430C07210E0E4C057861550478DB
:1012100004F01F050124AC4005786D11AD0005F107
:10122000E025C5F8004109E0047804F01F05012419
:10123000AC40054D0678761145F8264070BD00009B
:101240000CED00E000E400E080E100E00249014331
:10125000024A1160704700000000FA050CED00E042
:1012600010B56048D0ED000AB0EE601A5E48D0EDCF
:10127000000AB0EE600A5D48D0ED000AF8EEE00A20
:101280005B4802F081F85B4880ED000A5548D0EDDC
:10129000010AB0EE601A5448D0ED010AB0EE600ABF
:1012A0005548D0ED000AF8EEE00A544802F06CF818
:1012B000534880ED000A4B48D0ED020AB0EE601AA8
:1012C0004948D0ED020AB0EE600A4E48D0ED000A5F
:1012D000F8EEE00A4C4802F057F84C4880ED000A5E
:1012E0004B48D0ED000AF8EEE00A454890ED001AB0
:1012F000F7EE001A41EE210A3E4890ED001AF7EE93
:10130000001A41EE210A414890ED001AFFEE001A42
:1013100041EE210AB0EE600AFFF70CFF3D4908607C
:101320003B48D0ED000AF8EEE00A354890ED001A8F
:10133000FFEE001A41EE210A2E4890ED001AFFEE52
:10134000001A41EE210A314890ED001AFFEE001A12
:1013500041EE210AB0EE600AFFF7ECFE2E4908606C
:101360002B48D0ED000AF8EEE00A254890ED001A6F
:10137000FFEE001A41EE210A1E4890ED001AF7EE2A
:10138000001A41EE210A214890ED001AF7EE001AEA
:1013900041EE210AB0EE600AFFF7CCFE1F4908605B
:1013A0001B48D0ED000AF8EEE00A154890ED001A4F
:1013B000F7EE001A41EE210A0E4890ED001AFFEEFA
:1013C000001A41EE210A114890ED001AF7EE001ABA
:1013D00041EE210AB0EE600AFFF7ACFE104908604A
:1013E00010BD0000780100209001002024000020A2
:1013F000D800002044000020200000200801002028
:101400004800002028000020380100204C00002067
:101410001C0000202C0000203000002034000020A0
:101420003800002000B5DFED181A9FED181AF0EE15
:101430000C0A9FED160A164801F080FFDFED121A24
:101440009FED121AF0EE0C0A9FED100A114801F000
:1014500075FFDFED0E1A9FED0D1AF8EE040A9FEDF1
:101460000B0A0D4801F06AFFB3EE090A084801F0C3
:1014700087FFB3EE090A074801F082FFB3EE040AC2
:10148000054801F07DFF00BD00004842000000005B
:10149000D80000200801002038010020704700001B
:1014A00029B1064A12680243044B1A6004E0034A59
:1014B00012688243014B1A607047000030380240C6
:1014C00029B1064A12680243044B1A6004E0034A39
:1014D00012688243014B1A60704700004038024096
:1014E000F0B5002100220024022500260223324FFD
:1014F0003F6807F00C0121B1042905D0082937D134
:1015000005E02E4F076036E02D4F076033E02A4F8D
:101510003F1F3F68C7F38056274F3F1F3F6807F0C4
:101520003F036EB1264FB7FBF3F7DFF88CC0ACF189
:10153000040CDCF800C0CCF3881C07FB0CF40CE0B6
:101540001E4FB7FBF3F7DFF870C0ACF1040CDCF80A
:1015500000C0CCF3881C07FB0CF4174F3F1F3F68FB
:10156000C7F301477F1C7D00B4FBF5F7076002E07D
:10157000124F076000BF00BF0F4F3F6807F0F00138
:101580000909104F7A5C0768D74047600A4F3F68E7
:1015900007F4E051890A0B4F7A5C4768D7408760AF
:1015A000054F3F6807F46041490B064F7A5C476876
:1015B000D740C760F0BD0000083802400024F400A6
:1015C00000127A0000000020704700000CB50020D7
:1015D000019000903448006840F48030324908603F
:1015E00000BF3148006800F4003000900198401CB2
:1015F0000190009818B90198B0F5A04FF1D12A4890
:10160000006800F4003010B10120009001E00020DB
:1016100000900098012846D123484030006840F0EF
:1016200080502149403108602048006840F4404023
:101630001E4908601C48083000681B4908310860D2
:101640000846006840F4004008600846006840F41E
:10165000A05008601648091F0860081F006840F085
:101660008070091F086000BF0F48006800F000701C
:101670000028F9D040F205600E4908600A48083099
:10168000006820F003000849083108600846006837
:1016900040F00200086000BF03480830006800F016
:1016A0000C000828F8D10CBD003802400070004042
:1016B00008544007003C024070B504460D46FFF751
:1016C00087F808B9002070BD2046FFF755F8FFF7EE
:1016D000C5F830B9FFF7A6F801200D4908700020C1
:1016E000F1E72846FFF748F8FFF7B8F8FFF770F87A
:1016F000611CC8B2FFF740F8FFF7B0F8FFF712F827
:101700000646FEF7F3FFFFF78DF83046DBE70000F3
:101710005800002070B506460C461546FFF758F8ED
:1017200008B9002070BD3046FFF726F8FFF796F89D
:1017300018B9FFF777F80020F4E72046FFF71CF808
:10174000FFF78CF82846FFF717F8FFF787F8FFF741
:1017500069F80120E6E7704710B51548006840F4C5
:101760007000134908601348006840F001001149F7
:10177000086000200F49083108600E4800680E49D3
:1017800008400C4908600D48091D0860081F0068E2
:1017900020F48020091F0860002006490C310860F1
:1017A000FFF714FF4FF0006001498039086010BD59
:1017B00088ED00E000380240FFFFF6FE1030002404
:1017C000F0B50C46154600210022068C4FF6FE7738
:1017D0003E400684018B028C4FF60C7631407E1C15
:1017E00006EA03162E4331434FF6F576324044F0B5
:1017F0000106324301830284F0BDF0B50C46154664
:10180000002100220026078C4FF6EF7C07EA0C0728
:101810000784018B028C4FF6FF7707EA041640F627
:10182000FF4739404FF6FF7707EA033739434FF652
:10183000FF7707EA052739434FF65F773A4046F0CE
:1018400010073A4301830284F0BDF0B50C461546FB
:10185000002100220026078C4FF6FF6C07EA0C07D8
:101860000784818B028C4FF6FF7707EA04264FF638
:101870000C7739404FF6FF7707EA03172F433943B8
:101880004FF2FF573A4046F480773A43818302840F
:10189000F0BDF0B50C461546002100220026078C4D
:1018A0004EF6FF7C07EA0C070784818B028C4FF60B
:1018B000FF7707EA043640F6FF4739404FF6FF77D7
:1018C00007EA052739434FF6FF7707EA033739431D
:1018D00045F6FF773A4046F480573A4381830284C5
:1018E000F0BD000010B50121880700F0A4FA18B17E
:1018F0000121880700F084FA02480078401C014961
:10190000087010BD9800002010B59948007800F0CC
:101910008000002846D10221964800F08CFA002869
:1019200040D00221934800F06BFA9148007800F013
:10193000400040B38F4800F072FA8F490880084693
:1019400000888E490988884204DA4FF6FF708C4976
:10195000086002E000208A490860874800888749BB
:101960000988401A8649096808448649086008467B
:1019700000688549086000207D49087000217D4885
:1019800000F0E8FA0EE07B4800F049FA7B49088055
:101990007748007840F0400075490870022175488A
:1019A00000F0D8FA7948007800F08000002846D18D
:1019B0000421704800F03FFA002840D004216D480F
:1019C00000F01EFA7148007800F0400040B369480A
:1019D00000F028FA6E490880084600886D49098899
:1019E000884204DA4FF6FF706549086002E0002083
:1019F000634908606648008866490988401A60495A
:101A0000096808446449086008460068634908603A
:101A100000205E4908700021564800F0FFFA0EE0F1
:101A2000544800F0FFF95B4908805848007840F0BE
:101A300040005649087002214E4800F0EFFA58481D
:101A4000007800F08000002845D10821494800F0C6
:101A5000F2F980B30821474800F0D2F950480078E5
:101A600000F0400040B3434800F0DFF94D490880E2
:101A7000084600884C490988884204DA4FF6FF700E
:101A80003F49086002E000203D4908604548008861
:101A900045490988401A3A49096808444349086099
:101AA000084600684249086000203D49087000214E
:101AB000304800F01DFB0EE02E4800F0B6F93A4920
:101AC00008803748007840F040003549087002210E
:101AD000284800F00DFB3748007800F0800000280F
:101AE00045D11021234800F0A6F980B310212148E8
:101AF00000F086F92F48007800F0400040B31D4800
:101B000000F096F92C490880084600882B4909887E
:101B1000884204DA4FF6FF701949086002E000209D
:101B2000174908602448008824490988401A144944
:101B3000096808442249086008460068214908608D
:101B400000201C49087000210A4800F023FB0EE029
:101B5000084800F06DF9194908801648007840F0EF
:101B60004000144908700221024800F013FB10BD28
:101B70009C00002000040040A00000209E000020E7
:101B8000C4000020B4000020C8000020A2000020F3
:101B9000A6000020A4000020B8000020CC000020F7
:101BA000A8000020AC000020AA000020BC000020FB
:101BB000D0000020AE000020B2000020B0000020C5
:101BC000C0000020D40000201CB501210220FFF736
:101BD00067FC4FF44070009002208DF805008DF8EE
:101BE000040000208DF806008DF8070069460748BC
:101BF000FEF7B9FB022208210448FEF7FCFB022293
:101C000009210248FEF7F7FB1CBD0000000402405A
:101C100000B589B001210420FFF752FC44F6206092
:101C200007905320ADF818000020ADF82000ADF863
:101C30001A0044F62060079006A9164800F0F8FA4A
:101C40000121144800F0D0F86020ADF80400012014
:101C5000ADF8060040F2DC5003900020ADF8100013
:101C600001A90C4800F0F4F908210A4800F04DFAE7
:101C700001A9084800F052FA0821064800F097FA36
:101C80000121044800F0B0F80121024800F0BBF83F
:101C900009B000BD0008004010B5FFF795FFFFF741
:101CA000B7FF10BD1CB501210846FFF7F9FB0F2057
:101CB000009002208DF805008DF8040000208DF8BA
:101CC00006008DF8070069460B48FEF74CFB022220
:101CD00000210948FEF78FFB022201210648FEF78A
:101CE0008AFB022211460448FEF785FB02220321EB
:101CF0000148FEF780FB1CBD00000240F0B589B032
:101D000004460D4616461F4601210820FFF7D8FB62
:101D10004FF4FA5007905320ADF818000020ADF8AA
:101D20002000ADF81A004FF4FA50079006A91B489E
:101D300000F07EFA6020ADF804000120ADF8060046
:101D400000200390ADF8100001A9144800F0C4F879
:101D50000821124800F007F901A9104800F00CF919
:101D600008210E4800F067F901A90C4800F070F94D
:101D700008210A4800F0C9F901A9084800F0CEF985
:101D80000821064800F013FA0121044800F02CF85D
:101D90000121024800F037F809B0F0BD000C004006
:101DA00010B5FFF77FFF00231A4619461846FFF7C4
:101DB000A5FF10BD2DE9F04104460F4615461E460D
:101DC0002146084800F000FA3946064800F0FEF9BE
:101DD0002946044800F0FCF93146024800F0FAF9BF
:101DE000BDE8F081000C004021B1028842F0800281
:101DF000028004E002884FF67F731A400280704729
:101E0000CA430282704721B1028842F00102028077
:101E100004E002884FF6FE731A40028070470146C4
:101E2000486B70470146886B70470146C86B704726
:101E30000146086C704730B502460020002300249C
:101E4000158A05EA0103958905EA010413B10CB16D
:101E5000012000E0002030BD70B505460C4620880A
:101E600050B92389A28861882846FFF7A9FCE18838
:101E7000284600F0B1F925E0208804280AD12389FA
:101E8000A28861882846FFF7B8FCE188284600F060
:101E9000ACF917E0208808280AD12389A288618834
:101EA0002846FFF7D2FCE188284600F0ABF909E0AC
:101EB0002389A28861882846FFF7EBFCE188284641
:101EC00000F0A9F970BD1AB183890B43838102E048
:101ED00083898B438381704770B5002400220023DF
:101EE000058C4FF6FE7635400584028C8388048B82
:101EF0004FF68F752C40B51E2C400D882C43751E57
:101F00002A408D892A434D882A43104DA84202D089
:101F10000F4DA84213D14FF6F7752A40CD892A43B9
:101F20004FF6FB752A408D882A434FF6FF652B40FC
:101F30004FF6FF552B400D8A2B434D8A2B43838050
:101F400004838D684563028470BD00000000014079
:101F5000000401400A460021018C4FF6FD73194030
:101F60001143018470470A460021018B4FF6F77335
:101F7000194011430183704770B5002400220023EB
:101F8000058C4FF6EF7635400584028C8388048BF0
:101F900048F6FF752C404FF6FF452C400D884FF654
:101FA000FF7606EA05252C434FF6DF752A408D891A
:101FB00006EA05152A434D8806EA05152A43154DFC
:101FC000A84202D0144DA8421DD14FF67F752A4079
:101FD000CD894FF6FF7606EA05152A434FF6BF7501
:101FE0002A408D8806EA05152A434FF6FF352B4017
:101FF0004FF2FF752B400D8A06EA85052B434D8A6B
:1020000006EA85052B43838004838D6885630284FB
:1020100070BD000000000140000401400A4600219C
:10202000018C4FF6DF7319404FF6FF7303EA02137A
:102030001943018470470A460021018B4FF2FF7358
:1020400019404FF6FF7303EA0223194301837047D7
:1020500070B5002400220023058C4FF6FF66354042
:102060000584028C8388848B4FF68F752C404FF645
:10207000FC752C400D882C434FF6FF552A408D8966
:102080004FF6FF7606EA05252A434D8806EA052520
:102090002A43154DA84202D0144DA8421DD14FF23B
:1020A000FF752A40CD894FF6FF7606EA05252A43BB
:1020B0004FF6FF352A408D8806EA05252A434EF65D
:1020C000FF752B404DF6FF752B400D8A06EA05156E
:1020D0002B434D8A06EA05152B43838084838D6844
:1020E000C563028470BD000000000140000401408F
:1020F0000A460021018C4FF6FF5319404FF6FF733B
:1021000003EA02231943018470470A460021818BA8
:102110004FF6F773194011438183704770B5002261
:1021200000230024058C4EF6FF7635400584038C91
:102130008488828B48F6FF752A404FF6FF452A4077
:102140000D884FF6FF7606EA05252A434DF6FF7502
:102150002B408D8906EA05352B434D8806EA053567
:102160002B430A4DA84202D0094DA84208D14BF694
:10217000FF752C400D8A4FF6FF7606EA85152C4335
:10218000848082838D680564038470BD00000140F3
:10219000000401400A460021018C4DF6FF731940EE
:1021A0004FF6FF7303EA02331943018470470A466E
:1021B0000021818B4FF2FF7319404FF6FF7303EA42
:1021C00002231943818370474163704781637047DD
:1021D000C163704701647047028B4FF6F3731A4076
:1021E0000283028B0A4302837047028B4FF2FF3354
:1021F0001A400283028B4FF6FF7303EA01231A434E
:1022000002837047828B4FF6F3731A408283828B6E
:102210000A4382837047828B4FF2FF331A408283D6
:10222000828B4FF6FF7303EA01231A4382837047C0
:1022300000220288184B98420ED0184B98420BD0BF
:10224000B0F1804F08D0164B984205D0154B9842FC
:1022500002D0154B984204D14FF68F731A404B8829
:102260001A43124B984207D0114B984204D04FF6B4
:10227000FF431A400B891A4302804B68C3620B88E4
:102280000385054B984202D0044B984201D18B7ACA
:10229000038601238382704700000140000401404F
:1022A0000004004000080040000C00400010004006
:1022B000001400403EB505460C4601210846FFF7D4
:1022C000FFF80195ADF800400020ADF80800ADF82A
:1022D000020069464FF08040FFF7AAFF012241212A
:1022E0008807FFF7F0FD01218807FFF78CFD3EBD51
:1022F00010B501210A48FEF7ACF804210848FEF7A2
:10230000A6F840F22551074800F040F830B10548E2
:1023100000F0F6F8C4B2204600F006F810BD000048
:10232000000802400048004010B504462146054818
:1023300000F0EBF800BF4021024800F01AF8002836
:10234000F9D010BD0048004001F40072B2F5007FE2
:1023500000D100BFCA430280704721B1828942F494
:102360000052828104E082894DF6FF731A40828117
:10237000704702460020B1F5007F00D100BF1388EE
:102380000B400BB1012000E00020704770B5024601
:10239000002400230025002040F66A16B14200D137
:1023A00000BFC1F3421501F01F03012606FA03F333
:1023B000012D02D19689334006E0022D02D1168A02
:1023C000334001E0968A33400C12012606FA04F4E9
:1023D0001688344013B10CB1012000E0002070BD1C
:1023E000F0B50346002400260025002040F66A17B9
:1023F000B94200D100BF1846C1F3421401F01F06D4
:10240000012707FA06F5012C01D10C3004E0022C5B
:1024100001D1103000E014301AB107682F43076073
:1024200002E00768AF430760F0BD00002DE9FF47F9
:1024300005460E460024A14600BFA046B08900B163
:1024400000BF2C8A24F44054F08804432C82AC89C9
:1024500041F20C608443B088318908437189084394
:102460000443AC81AC8A24F44074B0890443AC8248
:102470006846FFF735F82048854202D01F4885425C
:1024800002D1DDF80C9001E0DDF80890A88900F495
:10249000004040B109EBC90000EB09103168490068
:1024A000B0FBF1F707E009EBC90000EB0910316858
:1024B0008900B0FBF1F76420B7FBF0F004012009BC
:1024C000642101FB1078A88900F4004040B132205B
:1024D00000EBC800B0FBF1F000F00700044308E097
:1024E000322000EB08106421B0FBF1F000F00F0087
:1024F00004432C81BDE8FF87001001400014014017
:1025000001468888C0F308007047C1F30802828042
:10251000704700BFFEE703B401984100009850EAFD
:10252000C12018BF04204A0D18BF40F0010040F23E
:10253000FF72B2EB515F08BF40F00200012808BFF4
:10254000052002B07047000070B5C1482DED020BA8
:102550002DED0E8B82B0119D25F000449FEDBEDB6A
:102560009FEDBFEB84423EDBA4F140511098A1F1F6
:102570007F6108430FD0BC48844202DC28D1109808
:1025800030B39DED100B02B0BDEC0E8B02B0BDE878
:10259000704000F0B0BC9DED100B53EC1D2B51ECC6
:1025A000100B01F07BFB9DED100B41EC180B53EC75
:1025B0001E2B51EC100B01F071FB53EC182B01F0AA
:1025C0000DF941EC100B02B0BDEC0E8B02B070BDEA
:1025D0000120FDF757FE02B0BDEC0E8B02B0BDE846
:1025E000704000F09DBCA1489FEDA18B844256DA5B
:1025F0009DED100BB4F1795F0ADA51EC100BFFF787
:102600008AFF042808BF00F09BFC9DED100BDAE761
:1026100053EC102B51EC100B01F040FB41EC190B6B
:1026200095480621B0EE490AF0EE690A784400F0B8
:10263000E6FB53EC192B51EC100B01F02FFB41EC96
:102640001A0B8E48B0EE490AF0EE690A042178446C
:1026500000F0D5FB53EC192B51EC100B01F01EFBD5
:1026600053EC182B01F0BAF841EC100B51EC1A0B9B
:1026700053EC102B01F066F9CDE900019DED000B44
:1026800053EC102B9DED100B51EC100B01F006FBE1
:102690009DED101B53EC112B01F0A0F8D2E09DED45
:1026A000100B51EC100B00F0F3FC53EC182B01F065
:1026B00029FC9FED730BCDE9000153EC102B9DED30
:1026C000000B51EC100B01F0E9FA41EC190B6E48CC
:1026D0000621B0EE490AF0EE690A784400F08FFB5B
:1026E00053EC192B51EC100B01F0D8FA41EC1B0BF9
:1026F0006648B0EE490AF0EE690A0421784400F019
:102700007EFB53EC192B51EC100B01F0C7FA53EC84
:10271000182B01F063F841EC1C0B51EC190B00F085
:1027200079FF41EC180B5A489FED5BABA04222DCCD
:1027300053EC1C2B51EC1B0B01F004F9CDE900010B
:102740009DED000B51EC180B53EC102B01F0A6FA89
:1027500053EC182B01F042F853EC1A2B01F09EFABF
:1027600053EC1D2B01F0A6FC53EC1E2B01F0CAFB11
:1027700041EC100B5FE08DED008B002000909DED93
:10278000000B51EC180B53EC102B01F027F89DEDCA
:10279000000B41EC1E0B53EC102B51EC100B01F015
:1027A0007DFA53EC192B01F0ADFB53EC1E2B01F01D
:1027B000C9F841EC190B53EC1C2B51EC1B0B01F02D
:1027C000C1F841EC1B0B53EC1A2B51EC190B01F027
:1027D00065FA53EC1D2B01F095FB41EC190B53EC02
:1027E0001A2B51EC180B01F059FA53EC1B2B01F08A
:1027F00055FA53EC192B01F05DFC9DED000B41ECFB
:10280000180B53EC1A2B51EC100B01F047FA9FED0B
:10281000249B53EC192B01F075FB41EC100B51EC90
:10282000180B53EC102B01F045FC53EC192B01F065
:1028300069FB41EC100B002D3FF7C5AE51EC100BBE
:1028400000F08EFF41EC100BBDE600000000000020
:102850000000F03F00000000075C143326A6913C06
:10286000182D4454FB21F93F0000F07F0000E03FA9
:10287000000000000000F03F501D00005E1D000041
:10288000000000000000E03FA21C0000B01C00009F
:102890003333EF3F00000000000000000000004064
:1028A000182D4454FB21E93F70B59B482DED020BD8
:1028B0002DED068B079D25F00044A04218DC9748BB
:1028C000844202DC0AD1069840B19DED060BBDECB6
:1028D000068B02B0BDE8704000F00DBB002DCCBFF0
:1028E0009FED8F0B9FED900BBDEC068B02B070BD82
:1028F0008F48A04215DD8F48A042D8BF4FF0FF346B
:1029000058DD9DED060B51EC100BFFF704FE04287B
:1029100008BF00F015FB9DED060BBDEC068B02B069
:1029200070BD9DED060B51EC100B00F0B1FBCDE935
:10293000060181489FED828BA0423CDD8248A04287
:102940001FDD00249FED82AB9DED060B53EC1A2B8F
:1029500051EC100B00F042FF9DED060B41EC190B02
:1029600053EC1A2B51EC100B01F098F953EC182B87
:1029700001F0A0FB53EC192B00F0E4FFCDE90601B8
:1029800049E09DED060B012453EC182B51EC100B84
:1029900000F024FF9DED060B41EC190B53EC182BB6
:1029A00051EC100B01F086FB53EC192B00F0CAFF21
:1029B000CDE906012FE06848A0421FDD02249FED0B
:1029C000689B9DED060B53EC192B51EC100B01F09D
:1029D00065F953EC182B00F001FF9DED060B41EC5F
:1029E000180B53EC192B51EC100B01F063FB53EC5B
:1029F000182B00F0A7FFCDE906010CE09DED060BBA
:102A0000032453EC102B9FED580B51EC100B00F0EE
:102A100099FFCDE906019DED060B53EC102B51EC0F
:102A2000100B01F03BF941EC180B53EC182B01F0A3
:102A300035F941EC190B4E480621B0EE490AF0EE8B
:102A4000690A784400F0DBF953EC182B51EC100BB9
:102A500001F024F941EC180B4648B0EE490AF0EEBB
:102A6000690A0521784400F0CAF953EC192B51EC9E
:102A7000100B01F013F941EC100B51EC180B53EC57
:102A8000102B002C0EDA00F0A9FE9DED061B53EC76
:102A9000112B01F003F99DED061B53EC112B01F0F6
:102AA00031FA35E000F09AFE9DED061B53EC112B38
:102AB00001F0F4F841EC100B2F48784400EBC4000F
:102AC00090ED001B51EC100B53EC112B01F0F2FABE
:102AD0009DED061B53EC112B01F0ECFA41EC100BB1
:102AE0002648784400EBC40090ED001B51EC100B1D
:102AF00053EC112B01F006FA41EC100B002DA2BF94
:102B0000BDEC068B02B070BD51EC100B00F028FE3E
:102B100041EC100B01E70000000010440000F07FC2
:102B2000182D4454FB21F93F182D4454FB21F9BFC3
:102B30000000DC3F0000203E0000F33F00000000EA
:102B4000000000000000F03F0000E63F0000000031
:102B50000000000000000040008003400000000072
:102B6000000000000000F83F000000000000F0BF7F
:102B7000F2190000A819000032190000EA1800003C
:102B800070B56B4E2DED040B2DED028B82B0DDF890
:102B90001CC0DDE905235C422CF000411C4341EAE6
:102BA000D474049D22F00040B44205D86C422C43FA
:102BB00040EAD474B4420BD99DED061B9DED040B85
:102BC00002B0BDEC028B04B0BDE8704000F09DB9CE
:102BD000ACF14054A4F17F641C430BD0022404EAFE
:102BE000AC7444EAD27405439FED538B9FED542B94
:102BF00007D015E09DED040B51EC100B00F0B3F97C
:102C000042E0002C11BF012C9DED040B02B0BDEC85
:102C1000028B04BF04B070BD022C38D0032C3BD013
:102C20000B439FED491B9FED4A0B0AD0B14218D1CF
:102C3000B04209D121F0804120F0804007910590F9
:102C40000FE0002A15DA10E0434B7B44002C08BF4C
:102C500093ED000B0DD0012C10D0022C17D0032CBB
:102C60001AD0B0421DD1002A03DAB0EE410AF0EECC
:102C7000610A02B0BDEC028B04B070BD93ED000B95
:102C800051EC100B00F06CFD41EC100BF1E7B0EED5
:102C9000480AF0EE680AECE7B0EE420AF0EE620A8B
:102CA000E7E7401A00153C28C8BF8DED000B19DC82
:102CB000BCF1000FBEBF10F13C0F9FED290B8DED55
:102CC000000B0FDB9DED060B53EC102B9DED040B61
:102CD00051EC100B00F036FE00F0DAF900F043F989
:102CE000CDE90001002C08BF9DED000BC1D0012CE7
:102CF00010D0022C9FED1C0B53EC102B9DED000B04
:102D000051EC100B0DD001F0D5F953EC182B01F05C
:102D1000D1F9B9E7019880F0004001909DED000BDA
:102D2000A7E701F0C7F953EC182B01F0EBF8ABE77C
:102D30000000F07F00000000182D4454FB210940E2
:102D4000182D4454FB2109C0182D4454FB21F9BF10
:102D5000182D4454FB21F93F1A1800000000000010
:102D60000000000000000000075C143326A6A13C10
:102D70002DED020B019820F0004001909DED000B1D
:102D800002B0704700B52DED048BB0EE409AF0EE26
:102D9000609A83B051EC190B01F0C0F841EC180BAC
:102DA00018EE100A18EE901A8DED008B002818BF4F
:102DB0000120084320F00040C0F17F6000F1E040B6
:102DC000C00F14D019EE101A19EE900A8DED009B69
:102DD000002918BF0121084320F00040C0F17F60A6
:102DE00000F1E040C00F04BF0120FDF74BFAB0EE48
:102DF000480A03B0F0EE680ABDEC048B00BD70B564
:102E000004462DED028B4D1E00EBC500B0EE408A4E
:102E1000F0EE608A90ED000B35F0060017D053EC11
:102E2000182B51EC100B00F039FF41EC100B6D1E0C
:102E300004EBC50090ED001B51EC100B53EC112B73
:102E400000F0CCFC41EC100B35F00600E7D1022D70
:102E500036D0042D1CD0062D1CBFBDEC028B70BDDE
:102E600053EC182B51EC100B00F018FF94ED0A1BDB
:102E700053EC112B00F0B2FC53EC182B00F00EFFBA
:102E800094ED081B53EC112B00F0A8FC41EC100B47
:102E900053EC182B51EC100B00F000FF94ED061BC7
:102EA00053EC112B00F09AFC53EC182B00F0F6FEBB
:102EB00094ED040B53EC102B00F090FC41EC100B44
:102EC00053EC182B51EC100B00F0E8FE94ED021BB4
:102ED00053EC112B00F082FC53EC182B00F0DEFEBB
:102EE00094ED001B53EC112B00F078FCBDEC028B31
:102EF00041EC100B70BD10B553EC102B51EC100BC6
:102F000000F06CFC41EC100B10BD10B553EC112B14
:102F100051EC100B00F062FC41EC100B10BD0000F6
:102F20009FED050B10B553EC102B51EC100B00F07E
:102F300009FD41EC100B10BD000000000000000076
:102F40009FED050B10B553EC102B51EC100B00F05E
:102F5000A5FE41EC100B10BD0000000000000010A9
:102F6000014600BF704710B541EC100BFFF79CFC09
:102F700051EC100B10BD00002DE9F04105468846CC
:102F800016461F46002409E01F48006830441E49C9
:102F900008601E2000F05EF8601CC4B20A2CF3DB4F
:102FA000194800680A2190FBF1F0174908600024D5
:102FB00009E016480068284414490860192000F008
:102FC00049F8601CC4B20A2CF3DB104800680A21DF
:102FD00090FBF1F00D490860002409E00C480068FE
:102FE00038440B490860192000F034F8601CC4B262
:102FF0000A2CF3DB064800680A2190FBF1F0044933
:103000000860BDE8F08100001000002014000020DE
:10301000180000204FF0E021096921F004014FF071
:10302000E0221161C21700EB5272C2F3C702074BD4
:103030001A701946097801EB4102C2EBC1114FF633
:10304000FF7202EAC101024A118070475400002059
:103050005600002001460D4A12884A434FF0E023F3
:103060005A6100229A6101221A6100BF4FF0E022EA
:10307000106900F001021AB100F48032002AF5D084
:1030800000224FF0E0231A619A6170475600002039
:1030900082B0CDE9000121F0004001909DED000BD0
:1030A00002B051EC100B70472DED0A8B00BF00BF32
:1030B0000024FEF725F801219248FDF7CAF9022104
:1030C0009048FDF7C6F904218E48FDF7C2F90821A2
:1030D0008C48FDF7BEF9A820FFF79CFFFEF74FF8DC
:1030E0004FF4E13000F0CEFA42F2CF012820FFF792
:1030F000E1F800F0E9F9FEF753FEFEF7CDFD64209C
:10310000FFF7A8FF00BF11E07F4D2D88ABB27E4DC9
:103110002D88AAB27C4D2D88A9B27B4D2D88A8B2EE
:10312000FEF748FE0120FFF795FF641C42F2107085
:103130008442E9DB6420FFF78DFFFDF7BDFA6420D0
:10314000FFF788FFFDF7C0FFFDF7D8F8FDF77EFA1F
:10315000FEF768F96D4803686D4802686A480168BF
:103160006C480068FFF708FF4FF4FA70FFF772FF32
:103170004FF4FA70FFF76EFF01216248FDF769F91D
:1031800002216048FDF763F904215E48FDF75FF90D
:1031900008215C48FDF75DF9B2E05F48007800283F
:1031A000FAD000205C490870FDF78AFB5B4890ED7F
:1031B000023AF0EE432A90ED013AB0EE432A90ED48
:1031C000003AF0EE431A564890ED023AB0EE431A38
:1031D00090ED013AF0EE430A90ED003AB0EE430A6A
:1031E000FDF762FC4D4890ED020A10EE101A0846F9
:1031F00001F04AF841EC1A0B484890ED010A10EE34
:10320000101A084601F040F841EC1B0BB0EE4A1AC8
:10321000F0EE6A1AB0EE4B0AF0EE6B0AFFF7B0FC64
:10322000B0EE409AF0EE609A51EC190B00F0A4FA5F
:10323000054601F029F841EC180B9FED3A0B53ECD1
:10324000102B00F02BFD41EC1C0B344890ED020AD2
:1032500010EE101A084601F017F841EC1A0B2F482F
:1032600090ED000A10EE101A084601F00DF841EC3E
:103270001B0BB0EE4A1AF0EE6A1AB0EE4B0AF0EEF3
:103280006B0AFFF77DFCB0EE409AF0EE609A51ECCD
:10329000190B00F071FA00EE100AB1EE400A10EEC0
:1032A000105A284600F0F0FF41EC180B9FED1D0B63
:1032B00053EC102B00F0F2FC41EC1C0B134803689C
:1032C000134802681048016812480068FDF750F979
:1032D000FDF7C6FF154D2D88ABB2154D2D88AAB24E
:1032E000144D2D88A9B2144D2D88A8B2FEF762FDA9
:1032F00004481430006880F001000249143108606D
:103300004BE7000000080240CC000020D400002061
:10331000D0000020C8000020980000208401002078
:1033200078010020B694631ADCA54C4038000020D8
:1033300034000020300000202C0000209FED0E2AD9
:1033400080ED012A9FED0C2A80ED022A9FED0A2ACA
:1033500080ED032A9FED082A80ED042A80ED000A03
:10336000C0ED050A80ED061AC0ED071A9FED032A8D
:1033700080ED0B2A70470000000000000000C842EA
:1033800080ED0B0A7047000010B52DED088B044648
:10339000F0EE408AB0EE609AF0EE419A84ED009A29
:1033A00094ED000A30EE680A84ED010A94ED030AF8
:1033B000D4ED010A9FED401A00EE810A84ED030A64
:1033C00094ED030AD4ED0B0AB4EEE00AF1EE10FA24
:1033D00004DD94ED0B0A84ED030A10E094ED030A7A
:1033E000D4ED0B0AF1EE600AB4EEE00AF1EE10FA49
:1033F00005D294ED0B0AB1EE400A84ED030AB1EE5A
:10340000690A84ED040A94ED010A10EE101A0846C8
:1034100000F03AFF41EC1B0BB0EE4B0AF0EE6B0AEA
:10342000FFF7A6FCB0EE40AAF0EE60AA9FED230BDA
:1034300053EC102B51EC1A0B00F02EFD2CD294ED16
:10344000050AD4ED010A20EE200A84ED080A94ED65
:10345000060AD4ED030A20EE200A84ED090A94ED51
:10346000070AD4ED040A20EE200A84ED0A0A94ED3E
:10347000050AD4ED010A20EE200AD4ED060A94EDE7
:10348000031A00EE810AD4ED070A94ED041A00EE47
:10349000810AB0EE408A02E00A4890ED008A94ED7D
:1034A000010A84ED020A074880ED008AB0EE480A5E
:1034B000BDEC088B10BD00006F12833B00000000C4
:1034C000000000005000002000B589B0012102205A
:1034D000FDF7F6FF01210420FDF7E2FF4FF47070C5
:1034E000079002208DF8200000208DF82200012096
:1034F0008DF8230007A94548FCF735FF0222062175
:103500004248FCF778FF022207214048FCF773FF8E
:10351000022208213D48FCF76EFF022209213B48A8
:10352000FCF769FF4FF6FF7005905320ADF81000CF
:103530000020ADF81800ADF8120004A93448FEF7D9
:1035400077FE0020ADF80400ADF806000120ADF8CC
:1035500008000020ADF80A000120ADF80C0001A918
:103560002B48FEF779FC0420ADF804000020ADF8EC
:1035700006000120ADF808000020ADF80A00012087
:10358000ADF80C0001A92248FEF766FC0820ADF852
:1035900004000020ADF806000120ADF8080000206E
:1035A000ADF80A000120ADF80C0001A91848FEF79B
:1035B00053FC0C20ADF804000020ADF806000120FB
:1035C000ADF808000020ADF80A000120ADF80C00AD
:1035D00001A90F48FEF740FC012202210C48FEF72A
:1035E00072FC012204210A48FEF76DFC0122082129
:1035F0000748FEF768FC012210210548FEF763FC2E
:1036000001210348FEF7FFFB09B000BD000802409E
:103610000004004000B52DED048B83B041EC190B84
:1036200000F07CFC41EC180B18EE100A18EE901A12
:103630008DED008B002818BF0120084320F00040CA
:10364000C0F17F6000F1E040C00F14D019EE101AF5
:1036500019EE900A8DED009B002918BF0121084347
:1036600020F00040C0F17F6000F1E040C00F04BFD7
:103670000120FCF707FE51EC180B03B0BDEC048BE6
:1036800000BD000010B586B0044601210420FDF7FE
:1036900007FF01218804FDF713FF07220A212E48A6
:1036A000FCF7A9FE07220B212B48FCF7A4FE4FF4E0
:1036B0008060049002208DF8150000208DF816001F
:1036C00001208DF8170002208DF8140004A922486B
:1036D000FCF749FE4FF40060049002208DF81500BD
:1036E00001208DF8160000208DF8170004A91A4853
:1036F000FCF739FE00940020ADF80400ADF8060098
:10370000ADF80800ADF80C000C20ADF80A006946D1
:103710001248FEF78BFE002240F227710F48FEF799
:103720005FFE40210D48FEF70FFE012240F22551B9
:103730000A48FEF755FE012228210848FEF750FEF0
:10374000012260210548FEF74BFE01210348FEF7E8
:1037500004FE06B010BD0000000802400048004012
:1037600081F00041704780F00040704721F0004137
:10377000704720F00040704721F00042A2F16052F3
:10378000B2F5801F01F0004328BFD2F17F6C0BD946
:103790005FEA001C43EAC20242EB507018BF704758
:1037A00028BF20F001007047B2F5801FBCBF18464B
:1037B00070474FEA410C1CF5001F02D2084600F08A
:1037C000D9BD70B500F014FB00000089FFF7F6BF0B
:1037D0004FF00040A0F580007047000010B591EA5E
:1037E000030F48BF83F0004300F16C84841A71EB2F
:1037F000030C05D2121943EB0C03001B61EB0C0107
:10380000DFF824E14FEA1154A4EB135C1EEA430FE6
:1038100018BF9EEA445F73D023EA0E03DCF1200E4A
:1038200021EA045143F4801332D322FA0CFE10EB48
:103830000E0023FA0CFE41EB0E01CCF1200E03FA30
:103840000EFE10EB0E0051F10001B1F5801FCCF11E
:10385000200E32D201EB045112FA0EF2BDE81040F4
:1038600058BF7047401C38BF5FEA420218BF70471C
:10387000002814BF20F0010041F100014FEA41038C
:1038800013F5001F38BF7047A1F1C04100F0FEBA28
:10389000012A43EB0302ACF1200CDCF11F0E32BF16
:1038A0004FF0000E23FA0CF310EB030041EB045130
:1038B000B4EB115FD0D0A1EB045101F580114908A0
:1038C0005FEA300001EB04510ED350F1000038BF25
:1038D00012FA0EFE08D1BDE81040C9E7401C38BFFF
:1038E0005FEA4202CAD1C3E7BDE810404FEA410394
:1038F00013F5001F38BF7047A1F1C04100F0C6BAF0
:103900009EEA445F08D011EA5E0FBDE8104004BF94
:1039100001F0004100207047BDE8104070B500F094
:1039200067FA00BF64FBBE3E0000E0FF491058BFCD
:10393000C1F140415B1058BFC3F140438B42EFF3EC
:10394000008070472DE9C04130B4DFF8A0C23CEAE6
:10395000111418BF3CEA131400F0EC8081EA03054F
:103960001CEA111444EAD57418BF1CEA131500F0C0
:10397000C780A4EB05044FF0004545EAC12145EAA4
:10398000C32341EA505143EA525304F17F749942F0
:1039900004F500344FEAC0204FEAC22208BF90422B
:1039A00000F09C804FEA13650FF24016765D4FEAF7
:1039B000134506FB05F7C7F1807706FB07F74FEACB
:1039C000D737A7FB03687642C8F58038A7FB06CE39
:1039D00038BFA8F1010807FB08E64FF0000EA6FB70
:1039E000028CE6FB03CEDCF1000CCEF1004E38BFBA
:1039F000AEF1010EA6FB0C584FF000074FF000058A
:103A0000E6FB0E87A1FB08C6A0FB07CE16EB0E0651
:103A100045F10005E1FB076515F1E04E7EBFA4F519
:103A200080345FEA46066D4116F1800745F10005D6
:103A30004FEA17274FEA066647EA0567A6F1DE4612
:103A4000B6F1805F4FEA15251FD9384624F0010CE6
:103A500005EBC471BCF1FE6F01EB0C1102D8F0BC98
:103A6000BDE8008124425CBF01F5801E9EEAC47F50
:103A700002D4F0BCBDE80081244238D4F0BCA1F1EE
:103A8000C041BDE8004100F001BA4FEAD22242EA4B
:103A900043524FEAD323A7FB02864FEAD02040EAE5
:103AA000415007FB03661EEA0E0F4FEAD12105FBCA
:103AB000026658BFA6EB0056B6EB00564FEA520E10
:103AC0004EEAC37E18EB0E0E56EB530EBDD518EB27
:103AD00002085E417F1C55F10005B6E74FF48015E2
:103AE0004FF000074FF000064FF00008ADE7F0BCC4
:103AF0004FF0000001F1C04101F00041BDE800813C
:103B000011EA0C1F0CEA131500D00CE013EA0C1F8D
:103B100000F025804FF00000F0BC81EA030101F0C5
:103B20000041BDE80081F0BCBDE8004181EA03012D
:103B300000F0ACB9F0BCBDE8004170B500F058F938
:103B4000097EFC3E00F007B881EA03014FF0000057
:103B500001F00041704781EA030100F097B9F0BC21
:103B6000BDE800414FF0000021497047FFFDFBF91F
:103B7000F7F5F4F2F0EEEDEBE9E8E6E4E3E1E0DEA0
:103B8000DDDBDAD8D7D5D4D3D1D0CFCDCCCBCAC812
:103B9000C7C6C5C4C2C1C0BFBEBDBCBBBAB9B8B739
:103BA000B6B5B4B3B2B1B0AFAEADACABAAA9A8A82C
:103BB000A7A6A5A4A3A3A2A1A09F9F9E9D9C9C9BFA
:103BC0009A999998979796959594939392919190A5
:103BD0008F8F8E8E8D8C8C8B8B8A89898888878736
:103BE0008685858484838382828181800000FF07AB
:103BF0000000F87F10F0004248BF4042B0FA80F366
:103C000010FA03F10AD0C3F11D0303F580634FEAF4
:103C1000415002EB035202EBD12170474FF00000FC
:103C20007047000051EA030C17D41CF5801F58BFE1
:103C3000BCF5801F00F10680994218BF704708BF8D
:103C40009042704707D711F5801F58BF13F5801FAA
:103C500019D499427047894270471CF5801F08D5D6
:103C6000BCF5801FF7D58B4218BF704708BF824252
:103C700070474FF4001C1CEB410F38BF1CEB430F87
:103C800001D28B42704770B500F0B2F8922449001F
:103C90004FF000514FF08053FFF748BEDFF848C1A6
:103CA00070B51CEA111E1EBF1CEA13159EEA0C0F0C
:103CB00095EA0C0F00F06F8081EA030423EA4C13AD
:103CC0004EEAD47E21EA4C1141F4801143F4801372
:103CD000AE44A1FB024CA0FB0365AEF17F7E36191A
:103CE00055EB0C05A1FB034C4CF10003A0FB021C9F
:103CF00016EB0C06654153F10003094218BF46F06C
:103D0000010613F4007F0BD14FEA03314FEA05306F
:103D1000340341EA155140EA16506FF003020AE0FD
:103D20004FEAC3214FEAC520F40241EA555140EA67
:103D300056506FF0020202EB2E4201EB025585EA6B
:103D4000CE710AD05FEA440C18BF24F0004450F151
:103D5000000041F1000120EAD47040F2FE7C62458F
:103D600000D270BDA84214BF4FF080444FF04044D1
:103D7000002E08BF0024BEF1806FA8BFA1F1C04192
:103D8000BDE8704080F282804FF0000001F1C04138
:103D900001F0004170479EEA0C0F0CEA131518BFA2
:103DA00095EA0C0F06D04FF0000081EA030E0EF0EA
:103DB000004170BD00F01CF88900013E00F007B81A
:103DC00000F009B84FEA430C5FEA5C5C08D081EA76
:103DD000030100F05BB84FEA410C5FEA5C5CF6D18E
:103DE0004FF00000014970470000FF070000F87F16
:103DF0000EF1020E2EF0030E5EF8046B364205D46F
:103E0000012A43EB030515F5001F12D8012841EBE9
:103E1000010C1CF5001F0CD80ED14FEAD17C15F512
:103E2000001F0CEB4C0C0CF1020C08BF4CEBD37CCC
:103E300004E04FF0080C01E04FEAD37C0CEB4C059A
:103E400026FA05F606F00706B6F1040C06D20EEBCC
:103E5000860CBDE870404CF0010C6047DFE80CF0C8
:103E6000090B02024FF000414FF00000A1F50021C4
:103E700070BD19461046012851EB010418BFD4F556
:103E8000001484BF002001F0004170BD0808A0F5B7
:103E900000114FEA3101704753EA010C17D41CF5A9
:103EA000801F58BFBCF5801F00F106808B4218BFF1
:103EB000704708BF8242704707D713F5801F58BF6D
:103EC00011F5801F19D48B4270479B4270471CF537
:103ED000801F08D5BCF5801FF7D5994218BF7047E1
:103EE00008BF904270474FF4001C1CEB430F38BFD3
:103EF0001CEB410F01D2994270470FB40CBC03BCBC
:103F0000FFF7C1BE91EA030F10B581F000413FF504
:103F10006DAC83F0004300F0D5B800002DE9F0410E
:103F200001F5801CBCF5001FC0F2A9804FEA115CAE
:103F300021EA0C510CF1FD0C41F480115FEA5C0C9C
:103F40000CF5C07C01D34000494130A4890241EA0C
:103F5000905187028E0E0A0CA45D04FB04F602FB4E
:103F600006F6C6F14046A4FB0662F60D46EA422676
:103F700006FB06F4A4FB01235242C3F1404338BFC1
:103F80005B1EA6FB02420024E6FB0324D20B42EA9E
:103F90004446A6FB0623A1FB02E2A3FB07E4E3FBE6
:103FA00061426442C2F1404E38BFAEF1010EA6FB41
:103FB00004234FF00002E6FB0E32A2FB034634005E
:103FC000E2FB6264A1FB06E6A4FB07E8E4FB616890
:103FD0007642C8F1405838BFA8F10108A2FB06E4B8
:103FE000A3FB08E5E2FB6854A1FB05E6A7FB04E898
:103FF000E1FB648618F1200556F10006A809A8F136
:104000001B08B10908F03F08B8F10A0F40EA8660C2
:104010001CD901EB0C51BDE8F08100BFFCF5EEE8C6
:10402000E2DDD8D3CFCBC7C3C0BDB9B6B4B1AEAC57
:10403000A9A7A5A3A19F9D9B9A9896959392908FCF
:104040008D8C8B898887868584838281A0FB00681C
:1040500000FB01F208EB4208B8EB872807D53418BB
:1040600058EB0104D5D5401C51F10001D1E7341AB9
:1040700078EB0104CDD4401E71F10001C9E75FEA7D
:104080004C0C5FEA9C5C0DD105D34FF0000001F0B1
:104090000041BDE8F081BDE8F04170B5FFF7A8FE32
:1040A0006DDBFFBEBDE8F0414FF0000000497047F6
:1040B0000000F87F10B591EA030F48BF83F000437A
:1040C0003FF594AB841A71EB030C07D212198CF0F4
:1040D000004C43EB0C03001B61EB0C01DFF8A4E187
:1040E0004FEA1154A4EB135C1EEA430F18BF9EEA7B
:1040F000445F00F0B08023EA6E03524221EA04518B
:10410000C3EB6E0338BF5B1EDCF1200E25D322FA11
:104110000CFE10EB0E0043FA0CFE41EB0E01CCF14D
:10412000200E03FA0EFE10EB0E0051F10001CCF14F
:10413000200E29D412FA0EF201EB0451BDE8104012
:1041400058BF7047401C1CBFB2F1004F7047002899
:104150000CBF491C20F00100704712EB020E43EB2C
:10416000030218BF4FF0010E4EEA4202ACF1200CE0
:10417000DCF11E0E54D943FA0CFE10EB0E0051F187
:10418000FF31CCF11E0ED5D50EF1010E12FA0EFE46
:10419000404141EB010101EB445C5FEA5C5C10D9FA
:1041A00010EBDE7001EB045138BFBEF1004FBDE8EB
:1041B000104018BF704700280CBF491C20F00100B8
:1041C000704730D24FEAD42C11F5001124F400646A
:1041D0001BD0B1FA81F20B3AA41AA41ED2F120032B
:1041E000914030FA03F31943904001EBCC71002C5D
:1041F00001EB0451BDE81040A8BF704701F1C04178
:104200004FF0000001F000417047B0FA80F310FA5F
:1042100003F100D110BDE41A173C4805C90AE4E7D0
:1042200001EB045110BD491001EB0451BDE81040F1
:104230004FEA300002E04FF0000170474A0008BF2B
:104240000042F8D0B2F5001F28BF704701F00041CE
:104250004FF0000070479EEA445F07D011EA5E0FFE
:10426000BDE8104004BF002100207047BDE81040A9
:1042700070B5FFF7BDFD00BF40DFF63E83F00041A3
:10428000104670470000E0FF43004FEAD30C4FEAAE
:104290003C0C43401FBF40070CF1605113F0FE4F30
:1042A00070471CF0006F03D100200CF000417047F4
:1042B0000CF0004343EA507010B540EACC0000F027
:1042C0000EF800BF000000924FEA0001FFF7DEBDCC
:1042D0004FF000414FF00000A1F5002170470EF1B2
:1042E000020E2EF0030E5EF8044B244204D44FEA73
:1042F0004102B2F17F4F11D84FEA4003B3F17F4F33
:104300000CD80ED14FEAD07CB2F17F4F0CEB4C0CA5
:104310000CF1020C08BF4CEBD17C04E04FF0080C10
:1043200001E04FEAD17C0CEB4C0324FA03F404F0D7
:104330000704B4F1040C06D20EEB840CBDE8104067
:104340004CF0010C6047DFE80CF0070802024FF068
:104350000040A0F5800010BD0846420018BFD2F111
:10436000807288BF00F0004010BD4FF04070E1EE59
:10437000100A7047FF2141EAD050C0057047000085
:10438000555555555555C53F7D6FEB0312D6D4BFD6
:104390005544880E55C1C93F3B8F68B52882A4BFDC
:1043A00088B20175E0EF493F09F7FD0DE13D023F9D
:1043B0004B2D8A1C273A03C0C88A599CE52A004025
:1043C00059018D1B6C06E6BF82922EB1C5B8B33F72
:1043D0004FBB610567ACDD3F182D4454FB21E93F1D
:1043E0009BF681D20B73EF3F182D4454FB21F93F0C
:1043F000E2652F227F2B7A3C075C143326A6813C92
:10440000BDCBF07A8807703C075C143326A6913C3C
:10441000C4EB98999999C9BF711623FEC671BCBFA8
:104420006D9A74AFF2B0B3BF9AFDDE522DDEADBF10
:104430002F6C6A2C44B4A2BF0D5555555555D53F28
:10444000FF8300922449C23F6E204CC5CD45B73F43
:10445000513DD0A0660DB13FEB0D76244B7BA93FBB
:1044600011DA22E33AAD903F0000000000000000A6
:104470009044000800000020D8000000C40100089B
:1044800068450008D800002028070000E001000867
:1044900000000000010203040102030406070809EA
:1044A000000000000000000000000000000000000C
:1044B00000000000000000000000000000000000FC
:1044C000000000000000000000000000DC0500000B
:1044D000DC050000000000000000000000000000FB
:1044E00000000000000000000000000000000000CC
:1044F00000000000000000000000000000000000BC
:10450000000000006F12033B0000803F000000002D
:1045100000000000000000000000803F00000000DC
:10452000000000000000000000000000000000008B
:10453000000000000000000000000000000000007B
:10454000000000000000000000000000000000006B
:10455000000000000000000000000000000000005B
:08456000000000000000000053
:0400000508000229C4
:00000001FF
